:020000040800F2
:1000000000500020F9240008412400084D24000875
:1000100053240008592400085F2400080000000051
:10002000000000000000000000000000652400083F
:1000300071240008000000007D24000889240008C5
:1000400041250008412500084125000841250008F8
:1000500041250008412500084125000841250008E8
:1000600041250008412500084125000841250008D8
:1000700041250008412500084125000841250008C8
:1000800041250008412500084125000841250008B8
:1000900041250008412500084125000841250008A8
:1000A0004125000841250008412500084125000898
:1000B0004125000841250008412500084125000888
:1000C0004125000841250008412500084125000878
:1000D0004125000841250008412500084125000868
:1000E00041250008412500084125000800000000C6
:1000F0000000000000000000000000000000000000
:0C01000000000000000000005FF808F1A3
:10010C0010B5054C237833B9044B13B10448AFF345
:10011C0000800123237010BD70000020000000003F
:10012C002C2E000808B5034B1BB103490348AFF351
:10013C00008008BD00000000740000202C2E000878
:10014C0010F8012B11F8013B012A28BF9A42F7D075
:10015C00D01A7047034613F8012B002AFBD1181A4A
:10016C000138704780B500AF084B1B68074A43F055
:10017C0010031360032000F02BF9002000F008F8A6
:10018C0002F092F80023184680BD00BF0020024008
:10019C0080B582B000AF7860124B1A68124B1B7896
:1001AC0019464FF47A73B3FBF1F3B2FBF3F3184631
:1001BC0000F035F90346002B01D001230EE07B68DB
:1001CC000F2B0AD8002279684FF0FF3000F00BF9A2
:1001DC00064A7B681360002300E0012318460837A9
:1001EC00BD4680BD08000020040000200000002057
:1001FC0080B400AF054B1B781A46054B1B681344A3
:10020C00034A136000BFBD4680BC70470400002049
:10021C008C00002080B400AF024B1B681846BD4612
:10022C0080BC70478C00002080B584B000AF786033
:10023C00FFF7F0FFB8607B68FB60FB68B3F57A7F73
:10024C0005D20A4B1B781A46FB681344FB6000BFAF
:10025C00FFF7E0FF0246BB68D31AFA689A42F7D858
:10026C0000BF00BF1037BD4680BD00BF040000209A
:10027C0080B485B000AF78607B6803F00703FB6047
:10028C000C4BDB68BB60BA684FF6FF031340BB60D6
:10029C00FB681A02BB68134343F0BF6343F400339B
:1002AC00BB60044ABB68D36000BF1437BD4680BC3A
:1002BC00704700BF00ED00E080B400AF044BDB687A
:1002CC001B0A03F007031846BD4680BC704700BFED
:1002DC0000ED00E080B483B000AF03463960FB71E1
:1002EC0097F90730002B0ADB3B68DAB20C4997F917
:1002FC0007301201D2B20B4483F800230AE03B68AA
:10030C00DAB20849FB7903F00F03043B1201D2B2B5
:10031C000B441A7600BF0C37BD4680BC704700BF3B
:10032C0000E100E000ED00E080B489B000AFF860BF
:10033C00B9607A60FB6803F00703FB61FB69C3F1EA
:10034C000703042B28BF0423BB61FB690433062B72
:10035C0002D9FB69033B00E000237B614FF0FF32C5
:10036C00BB6902FA03F3DA43BB681A407B699A4013
:10037C004FF0FF317B6901FA03F3D9437B680B40E3
:10038C00134318462437BD4680BC704780B582B0F5
:10039C0000AF78607B68013BB3F1807F01D3012310
:1003AC000FE00A4A7B68013B53600F214FF0FF308E
:1003BC00FFF790FF054B00229A60044B07221A604E
:1003CC00002318460837BD4680BD00BF10E000E092
:1003DC0080B582B000AF78607868FFF749FF00BF46
:1003EC000837BD4680BD80B586B000AF0346B96006
:1003FC007A60FB7300237B61FFF75EFF78617A689C
:10040C00B9687869FFF790FF024697F90F301146EB
:10041C001846FFF75FFF00BF1837BD4680BD80B59B
:10042C0082B000AF78607868FFF7B0FF03461846DB
:10043C000837BD4680BD000080B48BB000AF78603B
:10044C00396000237B6200233B6269E101227B6AF5
:10045C0002FA03F3FB613B681B68FA691340BB614A
:10046C00BA69FB699A4240F058813B685B689A4ACA
:10047C0093425ED0984A934275D8984A934258D08A
:10048C00964A93426FD8964A934252D0944A9342DA
:10049C0069D8944A93424CD0924A934263D8924A78
:1004AC00934246D0904A93425DD8122B2AD8122BF5
:1004BC0059D801A252F823F03F050008190500088D
:1004CC002B0500086D05000873050008730500086E
:1004DC007305000873050008730500087305000810
:1004EC007305000873050008730500087305000800
:1004FC007305000873050008730500082105000842
:10050C0035050008794A934213D02CE03B68DB6830
:10051C003B6229E03B68DB6804333B6224E03B68C8
:10052C00DB6808333B621FE03B68DB680C333B62E3
:10053C001AE03B689B68002B02D104233B6213E05A
:10054C003B689B68012B05D108233B627B68FA69E9
:10055C001A6109E008233B627B68FA695A6103E07F
:10056C0000233B6200E000BFBB69FF2B01D87B6816
:10057C0001E07B6804337B61BB69FF2B02D87B6A8B
:10058C009B0002E07B6A083B9B003B617B691A681D
:10059C000F213B6901FA03F3DB431A40396A3B69CB
:1005AC0001FA03F31A437B691A603B685B6803F03A
:1005BC008053002B00F0B1804D4B9B694C4A43F0AB
:1005CC00010393614A4B9B6903F00103BB60BB6859
:1005DC00484A7B6A9B08023352F82330FB607B6AE3
:1005EC0003F003039B000F2202FA03F3DB43FA68C8
:1005FC001340FB607B68404A934213D07B683F4AB0
:10060C0093420DD07B683E4A934207D07B683D4AAB
:10061C00934201D1032306E0042304E0022302E009
:10062C00012300E000237A6A02F003029200934057
:10063C00FA681343FB602F497B6A9B080233FA6804
:10064C0041F823203B685B6803F48033002B06D011
:10065C002D4B1A682C49BB6913430B6006E02A4BDF
:10066C001A68BB69DB43284913400B603B685B6825
:10067C0003F40033002B06D0234B5A682249BB6984
:10068C0013434B6006E0204B5A68BB69DB431E49A1
:10069C0013404B603B685B6803F48013002B06D05F
:1006AC00194B9A681849BB6913438B6006E0164BCB
:1006BC009A68BB69DB43144913408B603B685B68E9
:1006CC0003F40013002B21D00F4BDA680E49BB69E1
:1006DC001343CB6021E000BF00003210000031104A
:1006EC000000221000002110000012100000111058
:1006FC00001002400000014000080140000C0140C5
:10070C000010014000140140000401400B4BDA685A
:10071C00BB69DB4309491340CB607B6A01337B62C5
:10072C003B681A687B6A22FA03F3002B7FF48EAEC7
:10073C0000BF00BF2C37BD4680BC70470004014091
:10074C0080B483B000AF78600B467B8013467B701F
:10075C007B78002B03D07A887B681A6103E07B8856
:10076C001A047B681A6100BF0C37BD4680BC704709
:10077C0080B586B000AF78607B68002B01D1012377
:10078C006CE27B681B6803F00103002B00F0878090
:10079C00924B5B6803F00C03042B0CD08F4B5B6803
:1007AC0003F00C03082B12D18C4B5B6803F48033E1
:1007BC00B3F5803F0BD1894B1B6803F40033002B3E
:1007CC006CD07B685B68002B68D1012346E27B68A8
:1007DC005B68B3F5803F06D1804B1B687F4A43F4BE
:1007EC00803313602EE07B685B68002B0CD17B4B55
:1007FC001B687A4A23F480331360784B1B68774A62
:10080C0023F4802313601DE07B685B68B3F5A02F95
:10081C000CD1724B1B68714A43F4802313606F4BED
:10082C001B686E4A43F4803313600BE06B4B1B6800
:10083C006A4A23F480331360684B1B68674A23F4BD
:10084C00802313607B685B68002B13D0FFF7E2FCFE
:10085C00386108E0FFF7DEFC02463B69D31A642BD3
:10086C0001D90323FAE15D4B1B6803F40033002B21
:10087C00F0D014E0FFF7CEFC386108E0FFF7CAFCBB
:10088C0002463B69D31A642B01D90323E6E1534B8F
:10089C001B6803F40033002BF0D100E000BF7B6831
:1008AC001B6803F00203002B63D04C4B5B6803F016
:1008BC000C03002B0BD0494B5B6803F00C03082B8B
:1008CC001CD1464B5B6803F48033002B16D1434B91
:1008DC001B6803F00203002B05D07B681B69012BFE
:1008EC0001D00123BAE13D4B1B6823F0F8027B6871
:1008FC005B69DB00394913430B603AE07B681B6989
:10090C00002B20D0364B01221A60FFF783FC386194
:10091C0008E0FFF77FFC02463B69D31A022B01D992
:10092C0003239BE12D4B1B6803F00203002BF0D03B
:10093C002A4B1B6823F0F8027B685B69DB002749B4
:10094C0013430B6015E0264B00221A60FFF762FC84
:10095C00386108E0FFF75EFC02463B69D31A022BB4
:10096C0001D903237AE11D4B1B6803F00203002B12
:10097C00F0D17B681B6803F00803002B3AD07B682E
:10098C009B69002B19D0174B01221A60FFF742FC10
:10099C00386108E0FFF73EFC02463B69D31A022B94
:1009AC0001D903235AE10D4B5B6A03F00203002BC0
:1009BC00F0D0012000F0D8FA1CE00A4B00221A609B
:1009CC00FFF728FC38610FE0FFF724FC02463B6977
:1009DC00D31A022B08D9032340E100BF00100240B8
:1009EC0000004242800442429E4B5B6A03F00203C9
:1009FC00002BE9D17B681B6803F00403002B00F08B
:100A0C00A6800023FB75974BDB6903F08053002B0A
:100A1C000DD1944BDB69934A43F08053D361914BD6
:100A2C00DB6903F08053BB60BB680123FB758E4B05
:100A3C001B6803F48073002B18D18B4B1B688A4AFC
:100A4C0043F480731360FFF7E5FB386108E0FFF7B0
:100A5C00E1FB02463B69D31A642B01D90323FDE069
:100A6C00814B1B6803F48073002BF0D07B68DB6830
:100A7C00012B06D17B4B1B6A7A4A43F001031362AC
:100A8C002DE07B68DB68002B0CD1764B1B6A754A1A
:100A9C0023F001031362734B1B6A724A23F00403A5
:100AAC0013621CE07B68DB68052B0CD16D4B1B6A59
:100ABC006C4A43F0040313626A4B1B6A694A43F0A5
:100ACC00010313620BE0674B1B6A664A23F00103B8
:100ADC001362644B1B6A634A23F0040313627B6842
:100AEC00DB68002B15D0FFF795FB38610AE0FFF7A8
:100AFC0091FB02463B69D31A41F28832934201D9E9
:100B0C000323ABE0574B1B6A03F00203002BEED020
:100B1C0014E0FFF77FFB38610AE0FFF77BFB02462E
:100B2C003B69D31A41F28832934201D9032395E0F1
:100B3C004C4B1B6A03F00203002BEED1FB7D012B07
:100B4C0005D1484BDB69474A23F08053D3617B685E
:100B5C00DB69002B00F08180424B5B6803F00C03D7
:100B6C00082B61D07B68DB69022B46D13F4B0022FE
:100B7C001A60FFF74FFB386108E0FFF74BFB0246AA
:100B8C003B69D31A022B01D9032367E0354B1B6851
:100B9C0003F00073002BF0D17B681B6AB3F5803F28
:100BAC0008D1304B5B6823F400327B689B682D497D
:100BBC0013434B602B4B5B6823F474127B68196AEC
:100BCC007B685B6A0B43274913434B60274B01221D
:100BDC001A60FFF71FFB386108E0FFF71BFB0246AA
:100BEC003B69D31A022B01D9032337E01D4B1B6839
:100BFC0003F00073002BF0D02FE01C4B00221A6086
:100C0C00FFF708FB386108E0FFF704FB02463B697D
:100C1C00D31A022B01D9032320E0124B1B6803F0DB
:100C2C000073002BF0D118E07B68DB69012B01D13C
:100C3C00012313E00B4B5B68FB60FB6803F4803211
:100C4C007B681B6A9A4206D1FB6803F470127B68BE
:100C5C005B6A9A4201D0012300E000231846183742
:100C6C00BD4680BD00100240007000406000424252
:100C7C0080B584B000AF786039607B68002B01D1FF
:100C8C000123D0E06A4B1B6803F007033A689A42D1
:100C9C0010D9674B1B6823F0070265493B68134367
:100CAC000B60634B1B6803F007033A689A4201D050
:100CBC000123B8E07B681B6803F00203002B20D0F3
:100CCC007B681B6803F00403002B05D0594B5B6851
:100CDC00584A43F4E06353607B681B6803F00803D5
:100CEC00002B05D0534B5B68524A43F4605353605E
:100CFC00504B5B6823F0F0027B689B684D491343B3
:100D0C004B607B681B6803F00103002B40D07B68B1
:100D1C005B68012B07D1474B1B6803F40033002B96
:100D2C0015D101237FE07B685B68022B07D1414B17
:100D3C001B6803F00073002B09D1012373E03D4BBA
:100D4C001B6803F00203002B01D101236BE0394B2C
:100D5C005B6823F003027B685B68364913434B6086
:100D6C00FFF758FAF8600AE0FFF754FA0246FB68FE
:100D7C00D31A41F28832934201D9032353E02D4B0D
:100D8C005B6803F00C027B685B689B009A42EBD1BA
:100D9C00274B1B6803F007033A689A4210D2244B86
:100DAC001B6823F0070222493B6813430B60204B5E
:100DBC001B6803F007033A689A4201D0012332E022
:100DCC007B681B6803F00403002B08D0194B5B688D
:100DDC0023F4E0627B68DB68164913434B607B6845
:100DEC001B6803F00803002B09D0124B5B6823F43B
:100DFC0060527B681B69DB000E4913434B6000F0AB
:100E0C0021F802460B4B5B681B0903F00F030A49E0
:100E1C00CB5C22FA03F3094A1360094B1B68184692
:100E2C00FFF7B6F9002318461037BD4680BD00BF4A
:100E3C000020024000100240F8300008080000209A
:100E4C000000002090B48AB000AF2A4B3C1D0FCBA1
:100E5C0084E80F0040F201233B800023FB61002358
:100E6C00BB6100237B6200237B6100233B62224B2E
:100E7C005B68FB61FB6903F00C03042B02D0082BAD
:100E8C0003D02DE01D4B3B622DE0FB699B0C03F066
:100E9C000F0307F12802134413F8243C7B61FB6910
:100EAC0003F48033002B13D0134B5B685B0C03F003
:100EBC00010307F12802134413F8283CBB617B693A
:100ECC000E4A02FB03F2BB69B2FBF3F37B6204E054
:100EDC007B690B4A02FB03F37B627B6A3B6202E099
:100EEC00064B3B6200BF3B6A18462837BD4690BC98
:100EFC00704700BF442E00080010024000127A0018
:100F0C0000093D0080B400AF024B1B681846BD467B
:100F1C0080BC70470800002080B500AFFFF7F2FFDF
:100F2C000246054B5B681B0A03F007030349CB5CC5
:100F3C0022FA03F3184680BD001002400831000865
:100F4C0080B500AFFFF7DEFF0246054B5B68DB0A9E
:100F5C0003F007030349CB5C22FA03F3184680BD68
:100F6C00001002400831000880B485B000AF7860F2
:100F7C000A4B1B680A4AA2FB03235B0A7A6802FB32
:100F8C0003F3FB6000BFFB685A1EFA60002BF9D11B
:100F9C0000BF00BF1437BD4680BC7047080000205E
:100FAC00D34D621080B582B000AF78607B68002BA7
:100FBC0001D1012376E07B685B6A002B08D17B684A
:100FCC005B68B3F5827F09D07B680022DA6105E0AB
:100FDC007B6800221A617B6800225A617B680022C0
:100FEC009A627B6893F85130DBB2002B06D17B6898
:100FFC00002283F85020786801F088F97B6802227F
:10100C0083F851207B681B681A687B681B6822F088
:10101C0040021A607B685B6803F482727B689B6891
:10102C0003F404431A437B68DB6803F400631A433C
:10103C007B681B6903F002031A437B685B6903F04E
:10104C0001031A437B689B6903F400731A437B68A2
:10105C00DB6903F038031A437B681B6A03F08003D7
:10106C0042EA03017B689B6A03F400527B681B68AD
:10107C000A431A607B689B691A0C7B681B6802F038
:10108C0004025A607B681B68DA697B681B6822F46F
:10109C000062DA617B6800225A657B68012283F862
:1010AC005120002318460837BD4680BD80B58CB052
:1010BC0000AFF860B9607A607B800123FB6200238B
:1010CC0087F82B30FB6893F85030012B01D10223A9
:1010DC008AE1FB68012283F85020FFF79BF87862C5
:1010EC00FB6893F8513087F82330FB685B68FB6131
:1010FC007B887B8397F82330012B0FD0FB69B3F5EA
:10110C00827F07D1FB689B68002B03D197F82330B3
:10111C00042B03D0022387F82B305BE1BB68002B38
:10112C0005D07B68002B02D07B88002B03D10123D8
:10113C0087F82B304EE1FB6893F85130DBB2042B6F
:10114C0003D0FB68052283F85120FB6800225A6506
:10115C00FB687A689A63FB687A88DA87FB687A8816
:10116C009A87FB68BA681A63FB687A88DA86FB6828
:10117C007A889A86FB6800221A64FB6800225A64FB
:10118C00FB681B681B6803F04003402B07D0FB680F
:10119C001B681A68FB681B6842F040021A60FB6807
:1011AC00DB68B3F5006F78D1FB685B68002B02D06D
:1011BC007B8B012B66D1FB681B6B1A88FB681B6849
:1011CC00DA60FB681B6B9A1CFB681A63FB68DB8E8E
:1011DC009BB2013B9AB2FB68DA8653E0FB681B6852
:1011EC009B6803F00203022B1BD1FB68DB8E9BB2C6
:1011FC00002B16D0FB6A012B13D1FB681B6B1A88D2
:10120C00FB681B68DA60FB681B6B9A1CFB681A6333
:10121C00FB68DB8E9BB2013B9AB2FB68DA8600233B
:10122C00FB62FB681B689B6803F00103012B19D15F
:10123C00FB68DB8F9BB2002B14D0FB681B68DA6851
:10124C00FB689B6B92B21A80FB689B6B9A1CFB68C9
:10125C009A63FB68DB8F9BB2013B9AB2FB68DA871F
:10126C000123FB62FEF7D6FF02467B6AD31ABA6BE8
:10127C009A4207D8BB6BB3F57A7F03D0032387F868
:10128C002B30A7E0FB68DB8E9BB2002BA6D1FB6852
:10129C00DB8F9BB2002BA1D17CE0FB685B68002B41
:1012AC0002D07B8B012B6BD1FB681A6BFB681B6824
:1012BC000C3312781A70FB681B6B5A1CFB681A6390
:1012CC00FB68DB8E9BB2013B9AB2FB68DA8657E077
:1012DC00FB681B689B6803F00203022B1CD1FB68A4
:1012EC00DB8E9BB2002B17D0FB6A012B14D1FB6851
:1012FC001A6BFB681B680C3312781A70FB681B6B3B
:10130C005A1CFB681A63FB68DB8E9BB2013B9AB2DA
:10131C00FB68DA860023FB62FB681B689B6803F0A2
:10132C000103012B19D1FB68DB8F9BB2002B14D06E
:10133C00FB681B68DA68FB689B6BD2B21A70FB689F
:10134C009B6B5A1CFB689A63FB68DB8F9BB2013B5F
:10135C009AB2FB68DA870123FB62FEF75BFF024659
:10136C007B6AD31ABA6B9A4203D8BB6BB3F57A7FFC
:10137C0002D1BB6B002B03D1032387F82B3029E060
:10138C00FB68DB8E9BB2002BA2D1FB68DB8F9BB280
:10139C00002B9DD17A6AB96BF86800F0B1F803465E
:1013AC00002B06D0012387F82B30FB6820225A65CE
:1013BC0010E0FB689B68002B0BD100237B61FB6862
:1013CC001B68DB687B61FB681B689B687B617B69C6
:1013DC0000E000BFFB68012283F85120FB6800226B
:1013EC0083F8502097F82B3018463037BD4680BD17
:1013FC0080B588B000AFF860B9603B601346FB71F4
:10140C00FEF708FF0246BB6A9B1A3A681344FB615D
:10141C00FEF700FFB861394B1B685B011B0DFA69C5
:10142C0002FB03F37B6154E03B68B3F57A7F50D049
:10143C00FEF7F0FE0246BB69D31AFA699A4202D94A
:10144C00FB69002B3DD1FB681B685A68FB681B6865
:10145C0022F0E0025A60FB685B68B3F5827F11D121
:10146C00FB689B68B3F5004F04D0FB689B68B3F531
:10147C00806F07D1FB681B681A68FB681B6822F039
:10148C0040021A60FB689B6AB3F5005F0FD1FB68E2
:10149C001B681A68FB681B6822F400521A60FB6810
:1014AC001B681A68FB681B6842F400521A60FB68E0
:1014BC00012283F85120FB68002283F8502003237B
:1014CC0017E07B69002B01D10023FB617B69013B99
:1014DC007B61FB681B689A68BB681340BA689A42C8
:1014EC000CBF01230023DBB21A46FB799A429BD135
:1014FC00002318462037BD4680BD00BF08000020E1
:10150C0080B586B002AFF860B9607A607B680093F2
:10151C00BB6800228021F868FFF76AFF0346002BA6
:10152C0007D0FB685B6D43F02002FB685A65032310
:10153C0000E0002318461037BD4680BD80B582B050
:10154C0000AF78607B68002B01D101233FE07B6802
:10155C0093F83930DBB2002B06D17B68002283F87C
:10156C003820786800F01CFF7B68242283F839202F
:10157C007B681B68DA687B681B6822F40052DA60AF
:10158C00786800F0A3F97B681B681A697B681B6894
:10159C0022F490421A617B681B685A697B681B684D
:1015AC0022F02A025A617B681B68DA687B681B6828
:1015BC0042F40052DA607B680022DA637B682022F6
:1015CC0083F839207B68202283F83A2000231846C0
:1015DC000837BD4680BD80B58AB002AFF860B960EF
:1015EC003B601346FB8000237B61FB6893F839302A
:1015FC00DBB2202B7CD1BB68002B02D0FB88002BEC
:10160C0001D1012375E0FB6893F83830012B01D12F
:10161C0002236EE0FB68012283F83820FB6800226D
:10162C00DA63FB68212283F83920FEF7F3FD786139
:10163C00FB68FA889A84FB68FA88DA84FB689B68F2
:10164C00B3F5805F08D1FB681B69002B04D1002324
:10165C00FB61BB68BB6103E0BB68FB610023BB6142
:10166C00FB68002283F838202AE03B6800937B69F2
:10167C0000228021F86800F0DFF80346002B01D02F
:10168C00032336E0FB69002B0BD1BB691B881A4680
:10169C00FB681B68C2F308025A60BB690233BB616A
:1016AC0007E0FB691A78FB681B685A60FB69013319
:1016BC00FB61FB68DB8C9BB2013B9AB2FB68DA8462
:1016CC00FB68DB8C9BB2002BCFD13B6800937B6912
:1016DC0000224021F86800F0AFF80346002B01D03F
:1016EC00032306E0FB68202283F83920002300E066
:1016FC00022318462037BD4680BD80B58AB002AFA4
:10170C00F860B9603B601346FB8000237B61FB688B
:10171C0093F83A30DBB2202B40F08980BB68002B69
:10172C0002D0FB88002B01D1012381E0FB6893F8E8
:10173C003830012B01D102237AE0FB68012283F8B7
:10174C003820FB680022DA63FB68222283F83A20F7
:10175C00FEF760FD7861FB68FA889A85FB68FA8869
:10176C00DA85FB689B68B3F5805F08D1FB681B6961
:10177C00002B04D10023FB61BB68BB6103E0BB6899
:10178C00FB610023BB61FB68002283F8382043E037
:10179C003B6800937B6900222021F86800F04CF82C
:1017AC000346002B01D0032342E0FB69002B0CD134
:1017BC00FB681B685B689BB2C3F308039AB2BB69F6
:1017CC001A80BB690233BB611FE0FB689B68B3F5F1
:1017DC00805F07D0FB689B68002B0AD1FB681B69F4
:1017EC00002B06D1FB681B685B68DAB2FB691A70C8
:1017FC0008E0FB681B685B68DBB203F07F03DAB2BE
:10180C00FB691A70FB690133FB61FB68DB8D9BB2D2
:10181C00013B9AB2FB68DA85FB68DB8D9BB2002B2F
:10182C00B6D1FB68202283F83A20002300E0022383
:10183C0018462037BD4680BD80B584B000AFF86037
:10184C00B9603B601346FB712CE0BB69B3F57A7F42
:10185C0028D0BB69002B07D0FEF7DCFC02463B68A6
:10186C00D31ABA699A421DD2FB681B68DA68FB6806
:10187C001B6822F4D072DA60FB681B685A69FB683B
:10188C001B6822F001025A61FB68202283F8392080
:10189C00FB68202283F83A20FB68002283F838206A
:1018AC0003230FE0FB681B681A68BB681340BA6817
:1018BC009A420CBF01230023DBB21A46FB799A42F1
:1018CC00C3D0002318461037BD4680BD80B584B008
:1018DC0000AF78607B681B681B6923F440517B6800
:1018EC00DA687B681B680A431A617B689A687B68B4
:1018FC001B691A437B685B691343BB607B681B687D
:10190C00DB6823F4B05323F00C037A681268B968CF
:10191C000B43D3607B681B685B6923F440717B6865
:10192C009A697B681B680A435A617B681B682C4A5E
:10193C00934203D1FFF704FBF86002E0FFF7ECFAE7
:10194C00F860FA6813469B0013449A001A447B68AB
:10195C005B689B00B2FBF3F3224AA2FB03235B09F7
:10196C001901FA6813469B0013449A001A447B68C9
:10197C005B689B00B2FBF3F21A4BA3FB02035B09FF
:10198C00642000FB03F3D31A1B013233154AA2FB6C
:10199C0003235B0903F0F0031944FA6813469B0018
:1019AC0013449A001A447B685B689B00B2FBF3F209
:1019BC000C4BA3FB02035B09642000FB03F3D31A5B
:1019CC001B013233074AA2FB03235B0903F00F020E
:1019DC007B681B680A449A6000BF1037BD4680BD07
:1019EC00003801401F85EB51F0B5ADF2544D00AFFE
:1019FC00FEF7B8FB00F0F0F800F08AF900F028F9D7
:101A0C0000F05CF900F014FB6B4B07F234441D46FC
:101A1C000FCD0FC42B682370684B07F584641D46EB
:101A2C000FCD0FC42B682370654B07F20C441D4679
:101A3C000FCD0FC42B682370624A07F2044392E85F
:101A4C00030083E803003E1D5F4B34461D460FCD5B
:101A5C000FC40FCD0FC495E8070003C422800234D5
:101A6C00130C237006F12B0340F2D51200211846FB
:101A7C0000F094FD072000F089FD0346C7F84834B8
:101A8C00012209215148FEF75BFE4FF47A70FEF7F4
:101A9C00CBFB07F234431846FEF75CFB03469AB2C5
:101AAC0007F234411E234A48FFF795FDD7F8480446
:101ABC00FEF750FB03469AB244F62063D7F848145D
:101ACC004348FFF71AFED7F84804FEF743FB0346DA
:101ADC009AB21E23D7F848143D48FFF77CFD07F255
:101AEC000443D7F848141846FEF72AFB0346002B8C
:101AFC0046D107F20C431846FEF72CFB03469AB26C
:101B0C0007F20C411E233248FFF765FD0022082125
:101B1C002E48FEF715FE3B1D4FF48061184600F071
:101B2C0035FA07F501734FF48061184600F0EAF9B5
:101B3C000023A7F84E340EE0B7F84E3407F50172C7
:101B4C00D1181E2301222248FFF745FDB7F84E3469
:101B5C000133A7F84E34B7F84E34B3F5007FEBD30E
:101B6C001E231C221B491A48FFF735FD4FF4FA605F
:101B7C00FEF75AFB012208211448FEF7E1FD7FE72E
:101B8C0007F584631846FEF7E5FA03469AB207F5A3
:101B9C0084611E230E48FFF71EFD002201210B4815
:101BAC00FEF7CEFD4FF4FA60FEF73EFB0122012159
:101BBC000648FEF7C5FD63E7742E0008882E000862
:101BCC009C2E0008B02E0008B82E0008000C014016
:101BDC00E8000020542E000880B590B000AF07F14B
:101BEC00180328220021184600F0D8FC3B1D0022C7
:101BFC001A605A609A60DA601A610223BB61012391
:101C0C00BB621023FB6200237B6307F118031846A9
:101C1C00FEF7AEFD0346002B01D000F0C3F80F23F6
:101C2C007B600023BB600023FB6000233B6100232F
:101C3C007B613B1D00211846FFF71AF80346002B69
:101C4C0001D000F0AFF800BF4037BD4680BD0000AA
:101C5C0080B500AF174B184A1A60164B4FF48272BE
:101C6C005A60144B00229A60124B0022DA60114B1E
:101C7C0000221A610F4B00225A610E4B00229A610E
:101C8C000C4B0022DA610B4B00221A62094B00222A
:101C9C005A62084B00229A62064B0A22DA62054805
:101CAC00FFF780F90346002B01D000F07BF800BF52
:101CBC0080BD00BF900000200030014080B500AF17
:101CCC00114B124A1A60104B4FF4E1325A600E4B12
:101CDC0000229A600C4B0022DA600B4B00221A6136
:101CEC00094B0C225A61084B00229A61064B0022C8
:101CFC00DA610548FFF722FC0346002B01D000F007
:101D0C0051F800BF80BD00BFE80000200044004037
:101D1C0080B588B000AF07F1100300221A605A603A
:101D2C009A60DA601D4B9B691C4A43F02003936157
:101D3C001A4B9B6903F02003FB60FB68174B9B69F4
:101D4C00164A43F004039361144B9B6903F004039C
:101D5C00BB60BB68114B9B69104A43F0080393614D
:101D6C000E4B9B6903F008037B607B680022092102
:101D7C000B48FEF7E5FC09233B6101237B61002343
:101D8C00BB610223FB6107F1100319460448FEF7FF
:101D9C0053FB00BF2037BD4680BD00BF0010024082
:101DAC00000C014080B400AF00BFBD4680BC704742
:101DBC0080B586B002AF0346FB710023FB7307F1BD
:101DCC000F02F91D4FF48053009301230848FFF7CD
:101DDC006DF90346002B05D0192305220549064849
:101DEC00FFF7F9FBFB7B18461037BD4680BD00BFE3
:101DFC0090000020B8300008E800002080B582B0C8
:101E0C0000AF0346FB71FB791846FFF7D1FF00BF0B
:101E1C000837BD4680BD80B582B000AFFF20FFF70C
:101E2C00C7FF0346FB71FB7918460837BD4680BDDA
:101E3C0080B584B000AF03463960FB7197F9073069
:101E4C00002B0EDAFB7903F07F03FB710021772066
:101E5C00FFF7EEFF0346BB73BB7B012B01D9BB7BAA
:101E6C0049E0012210212648FEF76AFCFFF7D3FF58
:101E7C00002210212248FEF763FCFFF7CCFFFB7910
:101E8C001846FFF7BBFF3B681B0EDBB21846FFF78B
:101E9C00B5FF3B681B0CDBB21846FFF7AFFF3B6886
:101EAC001B0ADBB21846FFF7A9FF3B68DBB21846EA
:101EBC00FFF7A4FF0123FB73FB79402B01D1952382
:101ECC00FB73FB79482B01D18723FB73FB7B1846F3
:101EDC00FFF794FF0A23FB73FFF79DFF0346BB73C9
:101EEC0097F90E30002B05DAFB7B013BFB73FB7B78
:101EFC00002BF1D1BB7B18461037BD4680BD00BF0F
:101F0C000008014090B585B000AF78603960396841
:101F1C005120FFF78DFF03467B737B7B002B01D099
:101F2C0005232FE000F0B8F90023FB81FFF773FFC6
:101F3C0003467B73FB890133FB817B7BFE2B04D037
:101F4C00FB894FF6FF729342F0D1FB894FF6FF727B
:101F5C00934201D1052315E00023FB8109E0FB89A5
:101F6C007A68D418FFF757FF03462370FB890133B7
:101F7C00FB81FB89B3F5007FF1D300F08DF900F004
:101F8C008BF9002318461437BD4690BD80B584B03C
:101F9C0000AF7860396039685820FFF749FF034675
:101FAC007B737B7B002B01D006233DE000F074F9A2
:101FBC00FE20FFF723FF0023FB8109E0FB897A68F1
:101FCC0013441B781846FFF719FFFB890133FB817B
:101FDC00FB89B3F5007FF1D300F05EF900F05CF9FA
:101FEC00FFF719FF03467B737B7B03F00503052B7F
:101FFC0001D0062318E00023FB81FFF70CFF0346FA
:10200C007B73FB890133FB817B7BFF2B04D0FB892A
:10201C004FF6FF729342F0D1FB894FF6FF72934259
:10202C0001D1062300E0002318461037BD4680BDC1
:10203C0090B587B002AF904B00221A708F4BDB69C2
:10204C00BB608E4B3022DA618C48FEF7ABFF01226D
:10205C0010218B48FEF774FB0023FB7304E000F0A7
:10206C001BF9FB7B0133FB73FB7B092BF7D900F0CE
:10207C0013F9824ABB68D3618048FEF793FF0022B4
:10208C0010217F48FEF75CFB00214020FFF7D0FEBB
:10209C000346012B40F0CF8000F0FEF84FF4D571D1
:1020AC004820FFF7C5FE0346012B40F08C8000232F
:1020BC00FB730CE0FC7BFFF7AEFE03461A4607F100
:1020CC001003234403F80C2CFB7B0133FB73FB7BC9
:1020DC00032BEFD93B7919467B791846BB79FA79F2
:1020EC000192009303460A466649674800F014FBC8
:1020FC006548FEF72FF803469AB24FF480536249B5
:10210C006248FFF768FABB79012B40F09C80FB79A1
:10211C00AA2B40F0988042F6E063BB8105E0B7F94A
:10212C000C309BB2013B9BB2BB81B7F90C30002B3E
:10213C0007D04FF08041E920FFF77AFE0346002BD1
:10214C00EDD1B7F90C30002B7DD000217A20FFF7B0
:10215C006FFE0346002B76D10023FB730CE0FC7B57
:10216C00FFF759FE03461A4607F11003234403F800
:10217C000C2CFB7B0133FB73FB7B032BEFD93B79E3
:10218C0019467B791846BB79FA790192009303467C
:10219C000A463C493C4800F0BFFA3B48FDF7DAFFE1
:1021AC0003469AB24FF4805337493848FFF713FA75
:1021BC003B7903F04003002B01D00C2200E00422F9
:1021CC002D4B1A703FE00021E920FFF731FE03464A
:1021DC00012B05D8284B02221A70E923BB7304E0AB
:1021EC00254B01221A704123BB7346F2A813BB8105
:1021FC0005E0B7F90C309BB2013B9BB2BB81B7F940
:10220C000C30002B07D0BB7B00211846FFF710FECB
:10221C000346002BEDD1B7F90C30002B07D04FF44F
:10222C0000715020FFF704FE0346002B0BD0124B1D
:10223C0000221A7007E01923052215491348FFF7ED
:10224C00CAF9012313E00C4B1B78DBB21A46114977
:10225C000D4800F061FA0C48FDF77CFF03469AB27A
:10226C004FF4805308490948FFF7B5F90023184685
:10227C001437BD4690BD00BF2801002090000020FF
:10228C0000080140C03000082C010020E8000020AC
:10229C00B8300008E430000880B500AFFF20FFF72D
:1022AC0087FD00BF80BD000080B485B000AF154B2A
:1022BC009B69144A43F001039361124B9B6903F031
:1022CC000103BB60BB680F4BDB690E4A43F08053C4
:1022DC00D3610C4BDB6903F080537B607B680A4B4A
:1022EC005B68FB60FB6823F0E063FB60FB6843F01A
:1022FC000073FB60044AFB68536000BF1437BD4693
:10230C0080BC7047001002400000014080B588B0CE
:10231C0000AF786007F1100300221A605A609A60CF
:10232C00DA607B681B681B4A93422FD11A4B9B695E
:10233C00194A43F480539361174B9B6903F4805300
:10234C00FB60FB68144B9B69134A43F004039361D5
:10235C00114B9B6903F00403BB60BB6850233B61CA
:10236C0000237B610023BB6107F1100319460B4866
:10237C00FEF762F8A0233B6102237B610323FB6120
:10238C0007F1100319460548FEF756F800BF203731
:10239C00BD4680BD003001400010024000080140E5
:1023AC0080B588B000AF786007F1100300221A6086
:1023BC005A609A60DA607B681B681B4A93422FD183
:1023CC001A4BDB69194A43F40033D361174BDB69B1
:1023DC0003F40033FB60FB68144B9B69134A43F016
:1023EC0004039361114B9B6903F00403BB60BB684E
:1023FC0004233B6102237B610323FB6107F1100380
:10240C0019460B48FEF718F808233B6100237B6143
:10241C000023BB6107F1100319460548FEF70CF8C1
:10242C0000BF2037BD4680BD004400400010024074
:10243C000008014080B400AF00BFBD4680BC7047AF
:10244C0080B400AFFEE780B400AFFEE780B400AF0D
:10245C00FEE780B400AFFEE780B400AF00BFBD461E
:10246C0080BC704780B400AF00BFBD4680BC7047D5
:10247C0080B400AF00BFBD4680BC704780B500AFD4
:10248C00FDF7B6FE00BF80BD80B584B000AF7860AC
:10249C00114B1B68002B02D10F4B104A1A600E4BCC
:1024AC001B68FB600C4B1A687B6813446A469342AA
:1024BC0007D900F041F803460C221A604FF0FF33A5
:1024CC0006E0054B1A687B681344034A1360FB68EB
:1024DC0018461037BD4680BD6801002088010020D9
:1024EC0080B400AF00BFBD4680BC7047002103E044
:1024FC000B4B5B58435004310A480B4B42189A4221
:10250C00F6D30A4A02E0002342F8043B084B9A42F5
:10251C00F9D3FFF7E5FF00F015F8FFF765FA704700
:10252C004C310008000000207000002070000020DA
:10253C0084010020FEE70000014B1868704700BFC3
:10254C000C00002070B500260C4D0D4C641BA41023
:10255C00A64209D100F064FC00260A4D0A4C641B0B
:10256C00A410A64205D170BD55F8043B984701361E
:10257C00EEE755F8043B98470136F2E74431000882
:10258C00443100084431000848310008024B014630
:10259C00186800F057B800BF0C0000200346024436
:1025AC00934200D1704703F8011BF9E738B5054693
:1025BC00002943D051F8043C0C1F002BB8BFE41881
:1025CC0000F0CAF81E4A1368104633B963601460F1
:1025DC002846BDE8384000F0C5B8A3420AD92168A6
:1025EC006218934201BF1A685B68521822606360DC
:1025FC000460EDE71A465B680BB1A342FAD9116887
:10260C005018A0420BD1206801445018834211602D
:10261C00DED118685B68014411605360D8E702D9B9
:10262C000C232B60D4E7206821188B4201BF19685A
:10263C005B680918216063605460C9E738BD00BF4E
:10264C006C010020F8B5CD1C25F0030508350C2DC8
:10265C0038BF0C25002D064601DBA94203D90C23FB
:10266C0033600020F8BD00F077F821490A68144661
:10267C009CB9204F3B6823B92146304600F03CF80A
:10268C0038602946304600F037F8431C23D10C2320
:10269C003046336000F066F8E3E723685B1B17D421
:1026AC000B2B03D923601C44256004E06368A24211
:1026BC000CBF0B605360304600F054F804F10B0073
:1026CC00231D20F00700C21ACCD01B1AA350C9E757
:1026DC0022466468CCE7C41C24F00304A042E3D077
:1026EC00211A304600F008F80130DDD1CFE700BFE9
:1026FC006C0100207001002038B50023054D044604
:10270C0008462B60FFF7C0FE431C02D12B6803B1B7
:10271C00236038BD740100200EB46FF0004100B589
:10272C009CB01DAB02900690079104910848094992
:10273C0053F8042B0591006802A9019300F074F87A
:10274C000022029B1A701CB05DF804EB03B07047BA
:10275C000C0000200802FFFF014800F0FBBA00BF8C
:10276C007C010020014800F0F6BA00BF7C0100207B
:10277C002DE9F0478E6882469E420C4690461F46D5
:10278C0038D88A8912F4906F32D0256809690133E0
:10279C00A5EB010965694B4405EB450505EBD575C2
:1027AC006D109D4238BF1D46530531D52946FFF7A4
:1027BC0049FF064650B90C234FF0FF30CAF80030E1
:1027CC00A38943F04003A381BDE8F0874A46216901
:1027DC0000F0D0FAA38923F4906343F08003A38123
:1027EC0026614E4426603E466561A5EB0905A56051
:1027FC00BE4200D93E4632464146206800F0C8FA37
:10280C00A36822689B1B32440020A3602260DBE794
:10281C002A4600F0D7FA06460028E1D15046216935
:10282C00FFF7C4FEC7E700002DE9F04F98468B89EF
:10283C0007461B060D4614469DB00ED50B6963B9B1
:10284C004021FFF7FFFE2860286120B90C233B6074
:10285C004FF0FF30D1E040236B610023099320231C
:10286C008DF8293030234FF00109CDF80C80DFF8BA
:10287C00A4818DF82A3023469A4613F8012B0AB10D
:10288C00252AF9D1BAEB040B0BD05B46224629461C
:10289C003846FFF76DFF013000F0AA80099A5A44C0
:1028AC0009929AF80030002B00F0A28000234FF020
:1028BC00FF32CDE905230AF1010A049307938DF841
:1028CC0053301A935446052214F8011B514800F05A
:1028DC0043FA049AD8B9D00644BF20238DF853305C
:1028EC00110744BF2B238DF853309AF800302A2B54
:1028FC0015D0544600204FF00A0C079A214611F8C7
:10290C00013B303B092B4ED9B0B1079214E0A0EB40
:10291C00080309FA03F31343A2460493D2E7039B7B
:10292C00191D1B680391002BBBBF5B4242F00202D6
:10293C0007930793B8BF049223782E2B0CD163789E
:10294C002A2B35D1039B02341A1D1B680392002BD2
:10295C00B8BF4FF0FF330593DFF8C8A003225046F1
:10296C00217800F0F9F940B14023A0EB0A0003FAFA
:10297C0000F0049B01340343049314F8011B06225A
:10298C0025488DF8281000F0E7F9002838D0234BA3
:10299C001BBB039B073323F0070308330393099BEB
:1029AC003344099367E70C4601200CFB0232A5E780
:1029BC0000234FF00A0C194601340593204610F8F9
:1029CC00012B303A092A03D9002BC5D00591C3E756
:1029DC00044601230CFB0121F0E703AB00932A46CC
:1029EC0038460F4B04A9AFF30080421C0646D6D1E3
:1029FC00AB895B063FF52CAF09981DB0BDE8F08F95
:102A0C0003AB00932A463846054B04A900F07CF82A
:102A1C00EBE700BF103100081A310008000000007D
:102A2C007D270008163100082DE9F0471646994617
:102A3C008A680B6907469342B8BF1346336091F816
:102A4C0043200C46DDF820800AB101333360236843
:102A5C00990642BF336802333360256815F00605CA
:102A6C0006D104F1190AE36832689B1AAB4228DCE0
:102A7C0094F84320131E226818BF012392062DD40C
:102A8C004946384604F14302C047013020D0236840
:102A9C00E56803F00603042B18BF002532684FF0DD
:102AAC000006A36808BFAD1A226908BF25EAE575C0
:102ABC009342C4BF9B1AED181A34B5421AD10020A8
:102ACC0008E00123524649463846C047013003D13D
:102ADC004FF0FF30BDE8F0870135C4E73020E11836
:102AEC0081F843005A1C94F845102244023382F8B2
:102AFC004310C5E70123224649463846C0470130FA
:102B0C00E6D00136D9E700002DE9FF470C46277EB9
:102B1C009146782F80469A460C9904F1430207D8C7
:102B2C00622F0AD8002F00F0D980582F00F0A48013
:102B3C0004F1420684F842703AE0A7F16303152BC6
:102B4C00F6D801A050F823F0AD2B0008C12B0008DB
:102B5C003D2B00083D2B00083D2B00083D2B0008A9
:102B6C00C12B00083D2B00083D2B00083D2B000815
:102B7C003D2B0008CF2C0008F12B0008B12C0008CD
:102B8C003D2B00083D2B0008F12C00083D2B0008C4
:102B9C00F12B00083D2B00083D2B0008B92C000838
:102BAC000B6804F142061A1D1B680A6084F8423057
:102BBC000123A4E0256808682E0600F104030AD559
:102BCC0005680B60002D03DA2D236D4284F8433029
:102BDC000A235E4819E015F0400F05680B6018BF1A
:102BEC002DB2EFE70B682568181D0860280601D583
:102BFC001D6802E06906FBD51D886F2F0CBF0823EA
:102C0C000A235248002184F843106668002EA8BF9E
:102C1C002168A660A4BF21F0040121600DB9002E2B
:102C2C004DD01646B5FBF3F103FB1157C75D06F803
:102C3C00017D2F46BB420D46F4D9082B0BD12368DE
:102C4C00DF0708D5236961689942DEBF302306F897
:102C5C00013C06F1FF36921B22614B462146404651
:102C6C00CDF800A003AAFFF7DFFE01304CD14FF0E6
:102C7C00FF3004B0BDE8F087344884F845700E6826
:102C8C00236856F8045B1F060E6014D5D90744BFA1
:102C9C0043F0200323601DB9236823F02003236035
:102CAC001023AFE7236843F02003236078232848E0
:102CBC0084F84530E3E75E0648BFADB2E6E716465A
:102CCC00BBE70B6826681D1D60690D6035061B6827
:102CDC0001D5186002E07106FBD51880002316465A
:102CEC002361BAE70B681A1D0A601E680021304682
:102CFC00626800F031F808B1801B60606368236182
:102D0C00002384F84330A8E73246494640462369FD
:102D1C00D0470130ABD023689B0713D4E068039BEA
:102D2C009842B8BF1846A4E70123324649464046AC
:102D3C00D04701309BD00135E36803995B1AAB4255
:102D4C00F2DCEBE7002504F11906F5E72131000868
:102D5C003231000870477047034610B5C9B20244BF
:102D6C009342184601D1002003E0047801338C42D1
:102D7C00F6D110BD0A44914200F1FF3300D17047E7
:102D8C0010B511F8014B914203F8014FF9D110BD68
:102D9C00884210B501EB020402D98442234607D8BD
:102DAC00431EA14208D011F8012B03F8012FF8E7BC
:102DBC00014602448A4200D110BD13F8014D02F8BD
:102DCC00014DF7E7F8B5074614460E4621B91146F2
:102DDC00BDE8F840FFF736BC22B9FFF7E7FB254604
:102DEC002846F8BD00F014F8A0420FD22146384610
:102DFC00FFF728FC05460028F2D031462246FFF7A3
:102E0C00B9FF31463846FFF7D1FBE9E73546E7E72E
:102E1C0051F8043C181F002BBCBF0B58C01870474E
:102E2C00F8B500BFF8BC08BC9E467047F8B500BFAB
:082E3C00F8BC08BC9E4670477B
:102E440002030405060708090A0B0C0D0E0F1010E7
:102E5400737563636573732072656164696E67205B
:102E640066726F6D207364206361726400000000F9
:102E74000A496E7075742070617373776F72640A97
:102E8400000000000A57726F6E67207061737377D9
:102E94006F72640A000000000A5269676874207047
:102EA400617373776F72640A000000006261756D6C
:102EB400616E000053656C656374696F6E202E2E1D
:102EC4002E205468652E2E2E7C7C2048656C6C6FF9
:102ED4002066726F6D2053442063617264000000A9
:102EE40000000000000000000000000000000000DE
:102EF40000000000000000000000000000000000CE
:102F040000000000000000000000000000000000BD
:102F140000000000000000000000000000000000AD
:102F2400000000000000000000000000000000009D
:102F3400000000000000000000000000000000008D
:102F4400000000000000000000000000000000007D
:102F5400000000000000000000000000000000006D
:102F6400000000000000000000000000000000005D
:102F7400000000000000000000000000000000004D
:102F8400000000000000000000000000000000003D
:102F9400000000000000000000000000000000002D
:102FA400000000000000000000000000000000001D
:102FB400000000000000000000000000000000000D
:102FC40000000000000000000000000000000000FD
:102FD40000000000000000000000000000000000ED
:102FE40000000000000000000000000000000000DD
:102FF40000000000000000000000000000000000CD
:1030040000000000000000000000000000000000BC
:1030140000000000000000000000000000000000AC
:10302400000000000000000000000000000000009C
:10303400000000000000000000000000000000008C
:10304400000000000000000000000000000000007C
:10305400000000000000000000000000000000006C
:10306400000000000000000000000000000000005C
:10307400000000000000000000000000000000004C
:10308400000000000000000000000000000000003C
:10309400000000000000000000000000000000002C
:1030A400000000000000000000000000000000001C
:1030B400000000006572726F720000004F43523AC4
:1030C400203078253032582030782530325820305E
:1030D400782530325820307825303258726E00000E
:1030E400547970652053443A203078253032587230
:1030F4006E00000000000000000000000102030454
:10310400060708090000000001020304232D302BE8
:103114002000686C4C0065666745464700303132D4
:10312400333435363738394142434445460030312B
:10313400323334353637383961626364656600008A
:04314400310100084D
:043148000D0100086D
:10314C0010000000010000000024F400100000201A
:10315C000000000000000000000000000000000063
:10316C000000000000000000000000000000000053
:10317C000000000000000000000000000000000043
:10318C000000000000000000000000000000000033
:10319C000000000000000000000000000000000023
:1031AC000000000000000000000000000000000013
:04000005080024F9D2
:00000001FF
